:100000000C9434000C943E000C943E000C943E0082
:100010000C943E000C943E000C943E000C943E0068
:100020000C943E000C943E000C943E000C943E0058
:100030000C943E000C943E000C943E000C943E0048
:100040000C943E000C943E000C943E000C943E0038
:100050000C943E000C943E000C943E000C943E0028
:100060000C943E000C943E0011241FBECFEFD8E04C
:10007000DEBFCDBF0E9440000C9485000C940000B0
:10008000219A80918000826C809380008091810011
:100090008A61809381008FE097E29093870080933C
:1000A00086008BE090E02FEF34E34CE021503040AD
:1000B0004040E1F700C000002091860030918700A9
:1000C000205D374030938900209388002FEF34E380
:1000D0004CE0215030404040E1F700C0000020914A
:1000E000860030918700285E33403093890020934A
:1000F00088002FEF34E34CE0215030404040E1F7DE
:0E01000000C00000019779F6FFCFF894FFCF02
:00000001FF
